{
  "_format": "hh-sol-artifact-1",
  "contractName": "MultiSigWallet",
  "sourceName": "contracts/MultiSigWallet.sol",
  "abi": [
    {
      "inputs": [
        {
          "internalType": "address[]",
          "name": "_signatories",
          "type": "address[]"
        },
        {
          "internalType": "uint256",
          "name": "_numConfirmationsRequired",
          "type": "uint256"
        },
        {
          "internalType": "uint256",
          "name": "_transactionDelay",
          "type": "uint256"
        }
      ],
      "stateMutability": "nonpayable",
      "type": "constructor"
    },
    {
      "anonymous": false,
      "inputs": [
        {
          "indexed": true,
          "internalType": "address",
          "name": "owner",
          "type": "address"
        },
        {
          "indexed": true,
          "internalType": "uint256",
          "name": "txIndex",
          "type": "uint256"
        }
      ],
      "name": "ConfirmTransaction",
      "type": "event"
    },
    {
      "anonymous": false,
      "inputs": [
        {
          "indexed": true,
          "internalType": "address",
          "name": "owner",
          "type": "address"
        },
        {
          "indexed": true,
          "internalType": "uint256",
          "name": "txIndex",
          "type": "uint256"
        }
      ],
      "name": "ExecuteTransaction",
      "type": "event"
    },
    {
      "anonymous": false,
      "inputs": [
        {
          "indexed": true,
          "internalType": "address",
          "name": "owner",
          "type": "address"
        },
        {
          "indexed": true,
          "internalType": "uint256",
          "name": "txIndex",
          "type": "uint256"
        }
      ],
      "name": "RevokeConfirmation",
      "type": "event"
    },
    {
      "anonymous": false,
      "inputs": [
        {
          "indexed": true,
          "internalType": "address",
          "name": "signatory",
          "type": "address"
        }
      ],
      "name": "SignatoryAdded",
      "type": "event"
    },
    {
      "anonymous": false,
      "inputs": [
        {
          "indexed": true,
          "internalType": "address",
          "name": "signatory",
          "type": "address"
        }
      ],
      "name": "SignatoryRemoved",
      "type": "event"
    },
    {
      "anonymous": false,
      "inputs": [
        {
          "indexed": true,
          "internalType": "address",
          "name": "owner",
          "type": "address"
        },
        {
          "indexed": true,
          "internalType": "uint256",
          "name": "txIndex",
          "type": "uint256"
        },
        {
          "indexed": true,
          "internalType": "address",
          "name": "to",
          "type": "address"
        },
        {
          "indexed": false,
          "internalType": "uint256",
          "name": "value",
          "type": "uint256"
        },
        {
          "indexed": false,
          "internalType": "bytes",
          "name": "data",
          "type": "bytes"
        }
      ],
      "name": "SubmitTransaction",
      "type": "event"
    },
    {
      "anonymous": false,
      "inputs": [
        {
          "indexed": false,
          "internalType": "uint256",
          "name": "newThreshold",
          "type": "uint256"
        }
      ],
      "name": "ThresholdChanged",
      "type": "event"
    },
    {
      "inputs": [
        {
          "internalType": "address",
          "name": "_newSignatory",
          "type": "address"
        }
      ],
      "name": "addSignatory",
      "outputs": [],
      "stateMutability": "nonpayable",
      "type": "function"
    },
    {
      "inputs": [
        {
          "internalType": "uint256",
          "name": "_txIndex",
          "type": "uint256"
        }
      ],
      "name": "confirmTransaction",
      "outputs": [],
      "stateMutability": "nonpayable",
      "type": "function"
    },
    {
      "inputs": [
        {
          "internalType": "uint256",
          "name": "_txIndex",
          "type": "uint256"
        }
      ],
      "name": "executeTransaction",
      "outputs": [],
      "stateMutability": "nonpayable",
      "type": "function"
    },
    {
      "inputs": [],
      "name": "getSignatories",
      "outputs": [
        {
          "internalType": "address[]",
          "name": "",
          "type": "address[]"
        }
      ],
      "stateMutability": "view",
      "type": "function"
    },
    {
      "inputs": [
        {
          "internalType": "uint256",
          "name": "_txIndex",
          "type": "uint256"
        }
      ],
      "name": "getTransaction",
      "outputs": [
        {
          "internalType": "address",
          "name": "to",
          "type": "address"
        },
        {
          "internalType": "uint256",
          "name": "value",
          "type": "uint256"
        },
        {
          "internalType": "bytes",
          "name": "data",
          "type": "bytes"
        },
        {
          "internalType": "bool",
          "name": "executed",
          "type": "bool"
        },
        {
          "internalType": "uint256",
          "name": "numConfirmations",
          "type": "uint256"
        },
        {
          "internalType": "uint256",
          "name": "proposedAt",
          "type": "uint256"
        }
      ],
      "stateMutability": "view",
      "type": "function"
    },
    {
      "inputs": [],
      "name": "getTransactionCount",
      "outputs": [
        {
          "internalType": "uint256",
          "name": "",
          "type": "uint256"
        }
      ],
      "stateMutability": "view",
      "type": "function"
    },
    {
      "inputs": [
        {
          "internalType": "address",
          "name": "",
          "type": "address"
        }
      ],
      "name": "isSignatory",
      "outputs": [
        {
          "internalType": "bool",
          "name": "",
          "type": "bool"
        }
      ],
      "stateMutability": "view",
      "type": "function"
    },
    {
      "inputs": [],
      "name": "numConfirmationsRequired",
      "outputs": [
        {
          "internalType": "uint256",
          "name": "",
          "type": "uint256"
        }
      ],
      "stateMutability": "view",
      "type": "function"
    },
    {
      "inputs": [
        {
          "internalType": "address",
          "name": "_signatory",
          "type": "address"
        }
      ],
      "name": "removeSignatory",
      "outputs": [],
      "stateMutability": "nonpayable",
      "type": "function"
    },
    {
      "inputs": [
        {
          "internalType": "uint256",
          "name": "_txIndex",
          "type": "uint256"
        }
      ],
      "name": "revokeConfirmation",
      "outputs": [],
      "stateMutability": "nonpayable",
      "type": "function"
    },
    {
      "inputs": [
        {
          "internalType": "uint256",
          "name": "",
          "type": "uint256"
        }
      ],
      "name": "signatories",
      "outputs": [
        {
          "internalType": "address",
          "name": "",
          "type": "address"
        }
      ],
      "stateMutability": "view",
      "type": "function"
    },
    {
      "inputs": [
        {
          "internalType": "address",
          "name": "_to",
          "type": "address"
        },
        {
          "internalType": "uint256",
          "name": "_value",
          "type": "uint256"
        },
        {
          "internalType": "bytes",
          "name": "_data",
          "type": "bytes"
        }
      ],
      "name": "submitTransaction",
      "outputs": [],
      "stateMutability": "nonpayable",
      "type": "function"
    },
    {
      "inputs": [],
      "name": "transactionDelay",
      "outputs": [
        {
          "internalType": "uint256",
          "name": "",
          "type": "uint256"
        }
      ],
      "stateMutability": "view",
      "type": "function"
    },
    {
      "inputs": [
        {
          "internalType": "uint256",
          "name": "",
          "type": "uint256"
        }
      ],
      "name": "transactions",
      "outputs": [
        {
          "internalType": "address",
          "name": "to",
          "type": "address"
        },
        {
          "internalType": "uint256",
          "name": "value",
          "type": "uint256"
        },
        {
          "internalType": "bytes",
          "name": "data",
          "type": "bytes"
        },
        {
          "internalType": "bool",
          "name": "executed",
          "type": "bool"
        },
        {
          "internalType": "uint256",
          "name": "numConfirmations",
          "type": "uint256"
        },
        {
          "internalType": "uint256",
          "name": "proposedAt",
          "type": "uint256"
        }
      ],
      "stateMutability": "view",
      "type": "function"
    },
    {
      "inputs": [
        {
          "internalType": "uint256",
          "name": "_newThreshold",
          "type": "uint256"
        }
      ],
      "name": "updateThreshold",
      "outputs": [],
      "stateMutability": "nonpayable",
      "type": "function"
    },
    {
      "stateMutability": "payable",
      "type": "receive"
    }
  ],
  "bytecode": "0x608060405234801561001057600080fd5b5060405161193d38038061193d83398101604081905261002f91610276565b60008351116100855760405162461bcd60e51b815260206004820152601460248201527f5369676e61746f7269657320726571756972656400000000000000000000000060448201526064015b60405180910390fd5b600082118015610096575082518211155b6100e25760405162461bcd60e51b815260206004820152601f60248201527f496e76616c6964206e756d626572206f6620636f6e6669726d6174696f6e7300604482015260640161007c565b60005b835181101561023457600084828151811061010257610102610358565b6020026020010151905060006001600160a01b0316816001600160a01b0316036101625760405162461bcd60e51b8152602060048201526011602482015270496e76616c6964207369676e61746f727960781b604482015260640161007c565b6001600160a01b03811660009081526001602052604090205460ff16156101cb5760405162461bcd60e51b815260206004820152601460248201527f5369676e61746f7279206e6f7420756e69717565000000000000000000000000604482015260640161007c565b6001600160a01b031660008181526001602081905260408220805460ff191682179055815480820183559180527f290decd9548b62a8d60345a988386fc84ba6bc95484008f6362f93160ef3e56390910180546001600160a01b031916909217909155016100e5565b506002919091556003555061036e565b634e487b7160e01b600052604160045260246000fd5b80516001600160a01b038116811461027157600080fd5b919050565b60008060006060848603121561028b57600080fd5b83516001600160401b038111156102a157600080fd5b8401601f810186136102b257600080fd5b80516001600160401b038111156102cb576102cb610244565b604051600582901b90603f8201601f191681016001600160401b03811182821017156102f9576102f9610244565b60405291825260208184018101929081018984111561031757600080fd5b6020850194505b8385101561033d5761032f8561025a565b81526020948501940161031e565b50602088015160409098015190999798509695505050505050565b634e487b7160e01b600052603260045260246000fd5b6115c08061037d6000396000f3fe6080604052600436106100ec5760003560e01c80639ace38c21161008a578063d0549b8511610059578063d0549b85146102a4578063d5ab92fd146102ba578063d7d7442f146102da578063ee22610b146102fa57600080fd5b80639ace38c21461020c578063c01a8c841461022c578063c64274741461024c578063cdb9df6b1461026c57600080fd5b80632e7700f0116100c65780632e7700f01461016357806333ea3dc814610178578063906685b5146101aa5780639abd4dd9146101cc57600080fd5b80631c33245b146100f857806320ea8d861461012157806321dd877f1461014357600080fd5b366100f357005b600080fd5b34801561010457600080fd5b5061010e60035481565b6040519081526020015b60405180910390f35b34801561012d57600080fd5b5061014161013c366004611090565b61031a565b005b34801561014f57600080fd5b5061014161015e3660046110c5565b6104aa565b34801561016f57600080fd5b5060045461010e565b34801561018457600080fd5b50610198610193366004611090565b610617565b6040516101189695949392919061112d565b3480156101b657600080fd5b506101bf61071a565b6040516101189190611172565b3480156101d857600080fd5b506101fc6101e73660046110c5565b60016020526000908152604090205460ff1681565b6040519015158152602001610118565b34801561021857600080fd5b50610198610227366004611090565b61077c565b34801561023857600080fd5b50610141610247366004611090565b61085d565b34801561025857600080fd5b506101416102673660046111d4565b610a0d565b34801561027857600080fd5b5061028c610287366004611090565b610b09565b6040516001600160a01b039091168152602001610118565b3480156102b057600080fd5b5061010e60025481565b3480156102c657600080fd5b506101416102d53660046110c5565b610b33565b3480156102e657600080fd5b506101416102f5366004611090565b610d6b565b34801561030657600080fd5b50610141610315366004611090565b610e27565b3360009081526001602052604090205460ff166103525760405162461bcd60e51b8152600401610349906112a7565b60405180910390fd5b600454819081106103755760405162461bcd60e51b8152600401610349906112d0565b816004818154811061038957610389611307565b600091825260209091206003600790920201015460ff16156103bd5760405162461bcd60e51b81526004016103499061131d565b6000600484815481106103d2576103d2611307565b600091825260208083203384526006600790930201918201905260409091205490915060ff166104445760405162461bcd60e51b815260206004820152601960248201527f5472616e73616374696f6e206e6f7420636f6e6669726d6564000000000000006044820152606401610349565b3360009081526006820160205260408120805460ff191690556004820180546001929061047290849061136a565b9091555050604051849033907ff0dca620e2e81f7841d07bcc105e1704fb01475b278a9d4c236e1c62945edd5590600090a350505050565b3360009081526001602052604090205460ff166104d95760405162461bcd60e51b8152600401610349906112a7565b6001600160a01b0381166105235760405162461bcd60e51b8152602060048201526011602482015270496e76616c6964207369676e61746f727960781b6044820152606401610349565b6001600160a01b03811660009081526001602052604090205460ff161561058c5760405162461bcd60e51b815260206004820152601860248201527f5369676e61746f727920616c72656164792065786973747300000000000000006044820152606401610349565b6001600160a01b0381166000818152600160208190526040808320805460ff191683179055825491820183558280527f290decd9548b62a8d60345a988386fc84ba6bc95484008f6362f93160ef3e56390910180546001600160a01b03191684179055517f35e9f4e035b3b6d11ab65f031cdf634b53e98c81266f5dcb19ffa652533509f29190a250565b60008060606000806000806004888154811061063557610635611307565b60009182526020909120600790910201805460018201546003830154600484015460058501546002860180549697506001600160a01b039095169593949360ff90931692849061068490611383565b80601f01602080910402602001604051908101604052809291908181526020018280546106b090611383565b80156106fd5780601f106106d2576101008083540402835291602001916106fd565b820191906000526020600020905b8154815290600101906020018083116106e057829003601f168201915b505050505093509650965096509650965096505091939550919395565b6060600080548060200260200160405190810160405280929190818152602001828054801561077257602002820191906000526020600020905b81546001600160a01b03168152600190910190602001808311610754575b5050505050905090565b6004818154811061078c57600080fd5b60009182526020909120600790910201805460018201546002830180546001600160a01b0390931694509092916107c290611383565b80601f01602080910402602001604051908101604052809291908181526020018280546107ee90611383565b801561083b5780601f106108105761010080835404028352916020019161083b565b820191906000526020600020905b81548152906001019060200180831161081e57829003601f168201915b5050505060038301546004840154600590940154929360ff9091169290915086565b3360009081526001602052604090205460ff1661088c5760405162461bcd60e51b8152600401610349906112a7565b600454819081106108af5760405162461bcd60e51b8152600401610349906112d0565b81600481815481106108c3576108c3611307565b600091825260209091206003600790920201015460ff16156108f75760405162461bcd60e51b81526004016103499061131d565b826004818154811061090b5761090b611307565b600091825260208083203384526006600790930201919091019052604090205460ff161561097b5760405162461bcd60e51b815260206004820152601d60248201527f5472616e73616374696f6e20616c726561647920636f6e6669726d65640000006044820152606401610349565b60006004858154811061099057610990611307565b600091825260208083203384526006600790930201918201905260408220805460ff19166001908117909155600482018054929450909290916109d49084906113bd565b9091555050604051859033907f5cbe105e36805f7820e291f799d5794ff948af2a5f664e580382defb6339004190600090a35050505050565b3360009081526001602052604090205460ff16610a3c5760405162461bcd60e51b8152600401610349906112a7565b6004805460018101808355600083815291929083908110610a5f57610a5f611307565b6000918252602090912060079091020180546001600160a01b0319166001600160a01b03871617815560018101859055905060028101610a9f848261141f565b5060038101805460ff19169055600060048201554260058201556040516001600160a01b03861690839033907fd5a05bf70715ad82a09a756320284a1b54c9ff74cd0f8cce6219e79b563fe59d90610afa90899089906114de565b60405180910390a45050505050565b60008181548110610b1957600080fd5b6000918252602090912001546001600160a01b0316905081565b3360009081526001602052604090205460ff16610b625760405162461bcd60e51b8152600401610349906112a7565b6001600160a01b03811660009081526001602052604090205460ff16610b9a5760405162461bcd60e51b8152600401610349906112a7565b600254600054610bac9060019061136a565b1015610c205760405162461bcd60e51b815260206004820152603b60248201527f43616e6e6f742072656d6f7665207369676e61746f72793a20776f756c64206260448201527f7265616b20726571756972656420636f6e6669726d6174696f6e7300000000006064820152608401610349565b6001600160a01b0381166000908152600160205260408120805460ff191690555b600054811015610d3357816001600160a01b031660008281548110610c6857610c68611307565b6000918252602090912001546001600160a01b031603610d2b5760008054610c929060019061136a565b81548110610ca257610ca2611307565b600091825260208220015481546001600160a01b03909116919083908110610ccc57610ccc611307565b6000918252602082200180546001600160a01b0319166001600160a01b039390931692909217909155805480610d0457610d046114ff565b600082815260209020810160001990810180546001600160a01b0319169055019055610d33565b600101610c41565b506040516001600160a01b038216907f854bd90657c9840469c248f50889c6cb638355a3363d3c8bd8dd3048c5751eb390600090a250565b3360009081526001602052604090205460ff16610d9a5760405162461bcd60e51b8152600401610349906112a7565b600081118015610dac57506000548111155b610dec5760405162461bcd60e51b8152602060048201526011602482015270125b9d985b1a59081d1a1c995cda1bdb19607a1b6044820152606401610349565b60028190556040518181527f6c4ce60fd690e1216286a10b875c5662555f10774484e58142cedd7a90781baa9060200160405180910390a150565b3360009081526001602052604090205460ff16610e565760405162461bcd60e51b8152600401610349906112a7565b60045481908110610e795760405162461bcd60e51b8152600401610349906112d0565b8160048181548110610e8d57610e8d611307565b600091825260209091206003600790920201015460ff1615610ec15760405162461bcd60e51b81526004016103499061131d565b600060048481548110610ed657610ed6611307565b9060005260206000209060070201905060025481600401541015610f3c5760405162461bcd60e51b815260206004820152601860248201527f4e6f7420656e6f75676820636f6e6669726d6174696f6e7300000000000000006044820152606401610349565b6003548160050154610f4e91906113bd565b421015610f9d5760405162461bcd60e51b815260206004820152601960248201527f5472616e73616374696f6e2064656c6179206e6f74206d6574000000000000006044820152606401610349565b60038101805460ff191660019081179091558154908201546040516000926001600160a01b03169190610fd4906002860190611515565b60006040518083038185875af1925050503d8060008114611011576040519150601f19603f3d011682016040523d82523d6000602084013e611016565b606091505b505090508061105c5760405162461bcd60e51b8152602060048201526012602482015271151c985b9cd858dd1a5bdb8819985a5b195960721b6044820152606401610349565b604051859033907f5445f318f4f5fcfb66592e68e0cc5822aa15664039bd5f0ffde24c5a8142b1ac90600090a35050505050565b6000602082840312156110a257600080fd5b5035919050565b80356001600160a01b03811681146110c057600080fd5b919050565b6000602082840312156110d757600080fd5b6110e0826110a9565b9392505050565b6000815180845260005b8181101561110d576020818501810151868301820152016110f1565b506000602082860101526020601f19601f83011685010191505092915050565b60018060a01b038716815285602082015260c06040820152600061115460c08301876110e7565b941515606083015250608081019290925260a0909101529392505050565b602080825282518282018190526000918401906040840190835b818110156111b35783516001600160a01b031683526020938401939092019160010161118c565b509095945050505050565b634e487b7160e01b600052604160045260246000fd5b6000806000606084860312156111e957600080fd5b6111f2846110a9565b925060208401359150604084013567ffffffffffffffff81111561121557600080fd5b8401601f8101861361122657600080fd5b803567ffffffffffffffff811115611240576112406111be565b604051601f8201601f19908116603f0116810167ffffffffffffffff8111828210171561126f5761126f6111be565b60405281815282820160200188101561128757600080fd5b816020840160208301376000602083830101528093505050509250925092565b6020808252600f908201526e4e6f742061207369676e61746f727960881b604082015260600190565b6020808252601a908201527f5472616e73616374696f6e20646f6573206e6f74206578697374000000000000604082015260600190565b634e487b7160e01b600052603260045260246000fd5b6020808252601c908201527f5472616e73616374696f6e20616c726561647920657865637574656400000000604082015260600190565b634e487b7160e01b600052601160045260246000fd5b8181038181111561137d5761137d611354565b92915050565b600181811c9082168061139757607f821691505b6020821081036113b757634e487b7160e01b600052602260045260246000fd5b50919050565b8082018082111561137d5761137d611354565b601f82111561141a57806000526020600020601f840160051c810160208510156113f75750805b601f840160051c820191505b818110156114175760008155600101611403565b50505b505050565b815167ffffffffffffffff811115611439576114396111be565b61144d816114478454611383565b846113d0565b6020601f82116001811461148157600083156114695750848201515b600019600385901b1c1916600184901b178455611417565b600084815260208120601f198516915b828110156114b15787850151825560209485019460019092019101611491565b50848210156114cf5786840151600019600387901b60f8161c191681555b50505050600190811b01905550565b8281526040602082015260006114f760408301846110e7565b949350505050565b634e487b7160e01b600052603160045260246000fd5b600080835461152381611383565b60018216801561153a576001811461154f5761157f565b60ff198316865281151582028601935061157f565b86600052602060002060005b838110156115775781548882015260019091019060200161155b565b505081860193505b50919594505050505056fea2646970667358221220c9032ca8c156b88629cfc47ca24674a5ad00ec24ae0df7be9b9c0a42dacedfb264736f6c634300081b0033",
  "linkReferences": {},
  "deployedLinkReferences": {}
}